:0200000460009A
:100000004643464200000156000000000103030081
:1000100000000000000000000000000000000000E0
:1000200000000000000000000000000000000000D0
:1000300000000000000000000000000000000000C0
:1000400000000000010408000000000000000000A3
:100050000000800000000000000000000000000020
:100060000000000000000000000000000000000090
:100070000000000000000000000000000000000080
:10008000EB04180A063204260000000000000000FD
:10009000050404240000000000000000000000002F
:1000A0000000000000000000000000000000000050
:1000B0000604000000000000000000000000000036
:1000C0000000000000000000000000000000000030
:1000D00020041808000000000000000000000000DC
:1000E0000000000000000000000000000000000010
:1000F0000000000000000000000000000000000000
:10010000D8041808000000000000000000000000F3
:100110000204180804200000000000000000000095
:1001200000000000000000000000000000000000CF
:10013000600400000000000000000000000000005B
:1001400000000000000000000000000000000000AF
:10015000000000000000000000000000000000009F
:10016000000000000000000000000000000000008F
:10017000000000000000000000000000000000007F
:10018000000000000000000000000000000000006F
:10019000000000000000000000000000000000005F
:1001A000000000000000000000000000000000004F
:1001B000000000000000000000000000000000003F
:1001C000000100000010000001000000000000001D
:1001D000000001000000000000000000000000001E
:1001E000000000000000000000000000000000000F
:1001F00000000000000000000000000000000000FF
:10020000FFFFFFFFFFFFFFFFFFFFFFFFFFFFFFFFFE
:10021000FFFFFFFFFFFFFFFFFFFFFFFFFFFFFFFFEE
:10100000D10020434D1600600000000000000000E9
:1010100020100060001000600098016000000000D7
:101020000000006000A4010000000000FFFFFFFFBF
:10103000FFFFFFFFFFFFFFFFFFFFFFFFFFFFFFFFC0
:10104000FFFFFFFFFFFFFFFFFFFFFFFFFFFFFFFFB0
:10105000FFFFFFFFFFFFFFFFFFFFFFFFFFFFFFFFA0
:10106000FFFFFFFFFFFFFFFFFFFFFFFFFFFFFFFF90
:10140000814205D051F8043B40F8043B8242F9D8B0
:10141000704700BF044A05494FF0000342F8043BFF
:101420009142FBD8704700BFC02600206098022080
:101430002DE98848BFF34F8F00BF00BF00BF00BF3A
:1014400000F018F9684B0822C3F8542100BF00BF10
:1014500000BF00BF00BF00BF00BF00BF00BF00BF94
:1014600000BF00BF00BF00BF00BF00BF5F4A6049B0
:101470006048FFF7C5FF604A60496148FFF7C0FF59
:10148000604CFFF7C7FF4FF470004FF0E0210023DE
:101490005D4AC1F8880D44F823200133B02BFAD1FE
:1014A0005A4B80215A4A03F8011B9342FBD14FF05B
:1014B000E0254D4E4FF08039DFF884B1DFF884A18C
:1014C0004FF0FF31C5F8084D0027C6F80491C6F863
:1014D00000B1C6F8F490C6F8F0A0D5F8243DDFF8C6
:1014E000688143F4E0234B4AC5F8243DD8F81C300A
:1014F00023F07F0343F04003C8F81C30D8F82430B1
:1015000023F07F0343F04003C8F824309166D1668E
:101510001167516700F0B6F83F4B4049A363404B59
:10152000E36363236B610323AF612B613D4BC5F81C
:10153000203DD5F8FC3D43F08073C5F8FC3D3A4BA7
:101540001A6842F001021A605B680B6000F0E4FA6E
:10155000C6F804913548C6F800B1C6F8F490C6F84C
:10156000F0A000F07DFCD8F86C10314B314A41F40A
:101570004051C8F86C101F60C3F80871C3F81871A7
:10158000C3F82871C3F83871936BDB0708D442F6AF
:101590001563294951651365936B43F00103936308
:1015A000244A264C936843F00113936000F0F2F84C
:1015B00000F016FC00F044FC00F0DCFA00F05CF8EF
:1015C0002368132BFCD900F06DFB2368B3F5967FDD
:1015D000FBD300F055F800F051F800F039FC00F0B2
:1015E00033FC30BFFDE700BF00800D40E84E010036
:1015F0009820006000000000C0260020846F016079
:1016000000000020002400208199000000E400E098
:10161000A0E400E000C00A40C5860000FC9702205C
:10162000C986000000002020001000E00046C3230F
:101630000040084000400D400000C05600980220C5
:101640001B1018200C0D111300C00F40054B4FF458
:101650002A01054A05485A641864054A9963954663
:10166000FFF7E6FE00C00A40BFAAAAAA07002000B2
:1016700000800620704700BF704700BF704700BF62
:1016800000BF704710B44FF0E02300211024314810
:10169000C3F8941DC3F89C4D1124C3F8A00D2E4827
:1016A000C3F89C4D1224C3F8A00D2C48C3F89C4DE0
:1016B0002B4AC3F8A00D2B4C42F015022A48C3F860
:1016C0009C4DC3F8A00D294C2948C3F89C4DC3F884
:1016D000A00D284CC3F89C2D2748284AC3F8A04DDC
:1016E000C3F89C0DC3F8A02D02F5A022244C0C32A7
:1016F0002448C3F89C4DC3F8A02D234AC3F89C0D81
:10170000224CC3F8A02D02F14062C3F89C4D204842
:10171000C3F8A02D0C32C3F89C0DC3F8A02D00BF58
:1017200000BF00BF00BF00BF0122C3F8942DBFF36C
:101730004F8FBFF36F8FC3F8501FBFF34F8FBFF3AF
:101740006F8FD3F8142D5DF8044B42F44032C3F888
:10175000142D70473F0000102500080709001000F5
:1017600060980220130020002100020714000020CE
:1017700025000813090000101600202027000B1375
:1017800017000040180000602F000B0719000070C0
:101790001A000080F0B5B84B1822B84E0120B84F9F
:1017A00083B0C3F85C62B749C3F86072B64DC3F842
:1017B0006462A6F53046B54CC3F86862C3F86C5253
:1017C000C3F87052C3F87452C3F8785248F20C75DB
:1017D000DA661A675A679A67DA67C3F88020C3F82F
:1017E0008420C3F88820C1F82C03A94AC1F830032B
:1017F000C1F83403C1F83803C1F83C03C1F8500301
:10180000A169A44B0A40A448A4491343A44AA36174
:10181000D4F8843043F00C03C4F884304FF0FF3424
:10182000036843F00203036003682B404FF4005544
:101830001A439C4B026044608A689B4C13409B4A4D
:1018400043F000538360C36823F07803C360036AE6
:10185000134023430362036A1340954A2343954C84
:1018600043628262C2620022D1F8B83023F03F03A3
:1018700043F00103C0F8B830D1F8BC308E4923F0F2
:101880003F0343F00103C0F8BC3040F2056302613E
:1018900005660467C0F88030456644670224C0F8D6
:1018A0008430036823F0020303608161834B844921
:1018B000C46143F8042B8B42FBD1774A136843F091
:1018C00001031360136813F00103FBD17A4802216E
:1018D00040F2F564906140F29940D16140F2664176
:1018E000C2F8004242F20144C2F810127549C2F82F
:1018F0002002C2F8301240F235417348C2F8344237
:10190000C2F84012714CC2F8500242F201207049F4
:10191000C2F854120121C2F86042C2F864025E4863
:10192000C2F8A030C2F8A430C2F8B0104369DA0798
:10193000FCD5012300244FF4803257494361C0F89D
:10194000A040C0F8A420C0F8B0304B69DB07FCD53C
:10195000012300244FF400304F4A4B61C1F8A040EE
:10196000C1F8A400C1F8B0305369DF07FCD50123EA
:101970000024584848495361C2F8A040C2F8A40066
:10198000C2F8B0304B69DE07FCD5D1F8003145F61E
:101990000D5221209BB24861934265D100244FF43F
:1019A000802201233C48C1F8A040C1F8A420C1F81E
:1019B000B0304369DD07FCD501234FF4000400215A
:1019C000354A4361C0F8A040C0F8A410C0F8B03058
:1019D0005369DC07FCD501234FF400044FF4803039
:1019E0002D495361C2F8A040C2F8A400C2F8B0303B
:1019F0004B69D807FCD501234FF400044FF40030A5
:101A0000254A4B61C1F8A040C1F8A400C1F8B0302C
:101A10005369D907FCD501234FF400042D481E4912
:101A20005361C2F8A040C2F8A400C2F8B0304B69BC
:101A3000DA07FCD5D1F8003145F60D5221209BB2D2
:101A40004861934250D008254FF4000422490020F9
:101A5000224B234A009015705A1A01232148224430
:101A600000F0FAF903B0F0BD1E4B0022C3E90022DA
:101A7000C3E9022203B0F0BD00801F40F9B00100AD
:101A8000F910010000841F40F970010000C00F40F0
:101A9000FFFCFF1F000300A000402A4000802A40F6
:101AA0001200FFFFFF37F7004000008000FFF07CCE
:101AB000FF000F8363000200F05AF05A00422A40F0
:101AC00000432A409F041830EB06180A3806180A0B
:101AD00006320126040003000000007000000070C0
:101AE00031980220C45100204FF400044FF48022AA
:101AF00001230848C1F8A040C1F8A420C1F8B030C3
:101B00004369DB07FCD5012310254FF08074436146
:101B10009CE700BF00402A40F0B4154A40274FF42C
:101B200080314FF480564FF400554FF4404443F257
:101B30004200136913F0020F0ED113F4005F0FD0AF
:101B400013F4805F0ED0002BF3DA13F4803F0BD137
:101B50005B060BD5F0BC7047946151619061E8E77A
:101B60005561E6E75661E4E79161E2E75761E0E736
:101B700000800D403F4A03203F49F3EE095AD2F856
:101B800080304FF0000C9FED3D6A23F001039FED84
:101B90003C5A30B4C2F88030C2F89000D1F8E0105E
:101BA000384DCBB2384C39482B6007EE903A0B0DCC
:101BB000C1F30B21F8EEE77A06EE903A07EE101A21
:101BC000334BB8EEC77A2160F8EEE66A314937EE5A
:101BD000C66A37EEC55A76EEC76A77EEE57A26EE24
:101BE000266AC3ED006A25EE265AD2F8803067EEE9
:101BF000A64AC0ED007AC6EE275A274885EE276A26
:101C0000C4EEA76A75EE875AFCEEE55A36EE076A0F
:101C100015EE904ABCEEC66A43EA045376EE877A24
:101C2000C2F8803016EE103AD2F89041FCEEE77A16
:101C300001EA0341214317EE903AC2F89011C3F331
:101C40000B03D2F890110B431449C2F89031D2F82B
:101C5000803043F00203C2F88030114B80F840C05E
:101C6000C1F840314FF0E023012230BCC3F8082115
:101C7000704700BF00810D4000441F400000AA4291
:101C80000000B44268520020645200206C520020D0
:101C9000705200200000FF0F00E400E0002400204C
:101CA0006D9B0000314B40F6617210B5C3F82021E6
:101CB00040F2044400F0D8F82D4A2E49D2F8803082
:101CC0002D4843F00303C2F880302C4BC1F860412B
:101CD00002681A4203D1D1F8A8319A071BD0254ACD
:101CE0004FF00041244B5963D2F8403143F00203D6
:101CF000C2F84031D2F840319B07FBD44FF400309A
:101D00004FF0E0211C4B4FF00042C1F88C0219202B
:101D10009A6300F0ADF8184A4FF08040154C00214E
:101D200090630A20164B11604FF42072C4F8A8018A
:101D3000184600F0A1F84FF4800203464FF48100EA
:101D400040F243111860C4F858311A640D4B0E4A22
:101D5000C4F84811C3F804224FF0E0224FF40031D8
:101D60000123C2F80C11C4F8403110BD00800D40B1
:101D700000C00F4000002E4000900D40001C1E00CF
:101D80000000002000240020559D000008B50E4BE7
:101D90001B6E9B0700D4FBBE72B60C4B00200C4A96
:101DA000C3F8400103F160430A49A3F55F231164BE
:101DB0009D46BFF34F8F4FF400130748074ADB6976
:101DC00002609B68984700BF00441F4000002E40FF
:101DD00000C00A400300200000802020000012EB19
:101DE000104BA020104AD96E41F4403110B4D9668E
:101DF00040F23764D96E41F44071D96654649064FE
:101E0000936C1B06FCD4094A40F23761A02351644D
:101E10009364936C13F08003FBD1054A13705DF853
:101E2000044B704700C00F4000400C4000800C4045
:101E300030980220F8B500BFF8BC08BC9E46704739
:101E40005FF800F0DDAD00005FF800F06194000085
:101E50005FF800F0B10A01005FF800F01DAF00006C
:101E60005FF800F08D8F00005FF800F0C5A400005F
:101E70005FF800F07D9200005FF800F0410701007C
:101E8000450000005D050000611F000025210000E5
:101E9000352100001D2400007D850000118900000F
:101EA00080C00F4000000003190000001000000077
:101EB000E8841F4001000000FF000000FF00000058
:101EC00000000000000000001800000010000000EA
:101ED000E4841F4001000000FF000000FF0000003C
:101EE00000000000000000001F0000001921000099
:101EF00070C00F40000C0000110000001100000035
:101F0000E0841F40020000002C00000012000000CE
:101F1000E0841F40010000001000000011000000DC
:101F2000DC841F40020000002D00000012000000B1
:101F3000DC841F40010000001E0000000D21000095
:101F400070C00F40C000000012000000130000002D
:101F5000D0841F4001000000FF000000FF000000CF
:101F6000000000000000000013000000130000004B
:101F7000CC841F4001000000FF000000FF000000B3
:101F800000000000000000001C0000000121000013
:101F900016035500530042002000530065007200F4
:101FA000690061006C0000001803540065006500C2
:101FB0006E00730079006400750069006E006F00A8
:101FC0000403090409026200030100C032080B0087
:101FD00002020201000904000001020201000524BE
:101FE0000010010524010101042402060524060055
:101FF000010705820310001009040100020A000015
:1020000000070503024000000705840240000009A4
:1020100004020002FF6AFF00070581024000010779
:10202000050102400001000009026200030100C036
:1020300032080B0002020201000904000001020242
:1020400001000524001001052401010104240206F9
:10205000052406000107058203100005090401009C
:10206000020A0000000705030200020007058402BF
:102070000002000904020002FF6AC700070581028E
:102080000002010705010200020100000A06000229
:08209000EF0201400100000015
:102098000000000000000000000000000000000038
:1020A8000000000000000000000000000000000028
:1020B8000548064B1B1AD90F01EBA301491002D0A2
:1020C800034B03B118477047C0260020C0260020E4
:1020D8000000000008B5054B1BB105490548AFF3E2
:1020E8000080BDE80840FFF7E3BF00BF0000000024
:1020F8000C52002000A40160F0EE400A9FED070A90
:1021080008B5F1EE600A0DF0AFFF9FED057ADFED3F
:10211800057AE0EE077AB0EE670A08BD54F82D405C
:1021280000002F449AF97D44F6EE007A9FED057A77
:1021380060EEA00A60EEA70AC0EE877A37EE800A42
:10214800704700BFC3F51C4130EE600ADFED167A18
:10215800164B9FED175A60EE277A93ED007ADFED64
:10216800155AA7EE817A9FED0E6BF0EE477A83ED54
:10217800007AE0EE057A37EEA50AB7EEC07AB4EE3B
:10218800C67BF1EE10FA07DCB5EEC00AF1EE10FAE4
:1021980004D59FED090A70479FED080A704700BFF4
:1021A800182D4454FB21F93F6F1203BA0452002042
:1021B8006F1283BA7CD9A03E00000000DB0FC93F34
:1021C80030B482B00C4602AB03E90600C37C002B96
:1021D80030D072B6C37CDA0708D54FF0E0214569E4
:1021E800D1F880212A408262C1F880219D0708D554
:1021F8004FF0E0218569D1F884212A40C262C1F8F4
:102208008421590708D54FF0E021C569D1F8882104
:102218002A400263C1F888211A0708D54FF0E02147
:10222800056AD1F88C212A404263C1F88C21DB066B
:102238002FD462B683689C4235D0224B84609B6958
:10224800214AC3F30111C3F3826352F82110013309
:10225800B1FBF3F2CCB1944227D8B2FBF4F3B2FB52
:10226800F3F294422CD3B3F5817F20D3174CC4608A
:10227800036803220020019918615A6201221C6434
:1022880019661A6102B030BC70479942EFD3531CEB
:10229800E9E74FF0E022416AD2F890310B408363BE
:1022A800C2F89031C5E7C468E2E70024DFE7022BF3
:1022B800FBD9023B5A08140244EA02441C43D6E7FD
:1022C8001A46E4E700C00F40940E0020FF7F7F000D
:1022D8009FED087AF7EE007A002320EE070A4360A4
:1022E80060EE200A70EEA77A80EEA77A80ED007A79
:1022F800704700BFDB0FC940D0ED017AD0ED006A0E
:1023080030EE677AE6EE877AB0EE670AC0ED017ABA
:10231800704700BF0C4B9A6872B11A6859688A42B4
:10232800ACBF002201221A731B7B23B1074B4FF469
:102338000062C3F8842070471A6859688A42D4BF7B
:10234800002201221A73EFE7EC97022000400042B6
:10235800036818470B680360704700BF0B68036089
:10236800704700BF704700BF10B5044608F0E0FA98
:10237800204610BD094B1A7B7AB1002208494FF458
:102388000060C1F888001A739A681AB11A68013295
:102398001A6070471A68013A1A607047EC97022071
:1023A80000400042164A17491268174B17488A42DC
:1023B80030B58DB00093029005D802EB4202D400EC
:1023C800013C102C09D8124B02AD284698471148F9
:1023D8000DB0BDE8304008F0ABBA02AD08A80693CE
:1023E8002946FFF7B7FF224606A90B4808F01EFA50
:1023F800069B08A8DB689847009BDB68E5E700BFF9
:1024080088160020AAAAAA0A840E0020E502000065
:10241800D50200004C23002044230020034B002257
:102428005A601A609A601A73704700BFEC970220CE
:1024380070B501218CB0082009F022F8012109208B
:1024480009F01EF80121072009F01AF801210720D8
:1024580008F0DAFF4C4B7E2118681971A0B14B4B7C
:102468004B4A03444B4C1B11D15413785078917844
:102478008342D27828BF03468B4228BF0B4693423B
:1024880028BF134684F87A30434B7F2118681971A6
:10249800A0B13E4B3E4A03443E4C1B11D154137825
:1024A800507891788342D27828BF03468B4228BF60
:1024B8000B46934228BF134684F87A30374B7D2168
:1024C80018681971A0B1314B314A0344314C1B11C2
:1024D800D1545378107891788342D27828BF034634
:1024E8008B4228BF0B46934228BF134684F87A30A4
:1024F8002B4A2C4B12682C4D2C499A42009502917C
:1025080005D802EB4202D400013C102C16D8284B07
:1025180002AE30469847274A224B126826499A420B
:102528000095029105D802EB4202D400013C102C20
:1025380016D81F4B304698470CB070BD02AE08A89D
:1025480006953146FFF706FF224606A90E4808F011
:102558006DF9069B08A8DB689847009BDB68D8E7FD
:10256800314608A80695FFF7F5FE224606A90B484E
:1025780008F05CF9069B08A8DB689847009B304682
:10258800DB6898470CB070BD3C23002000BFF7BF44
:102598003C1D002000E400E0442300204C230020E0
:1025A80088160020AAAAAA0A840E00208502000024
:1025B800D50200008416002015030000064B0820F1
:1025C80059601A6859688A42ACBF002201229A6091
:1025D8009968C9B208F018BFEC97022000210720BB
:1025E80008F012BF0121072008F00EBF08B5084AFD
:1025F800084909480AF01CFD054A064907480AF037
:1026080017FD034A03490648BDE808400AF010BD13
:10261800481D0020D90200003C230020442300204C
:102628004C2300200023034A80ED030A0360436023
:1026380082607047000080BF08B501220D4B1A70F8
:102648000AF06AFB0C4B1B789BB10C4B1B78DB0721
:102658000FD50B4B0B4A1B6812689B1A0E2B08D917
:10266800642109480AF0DAFA0848BDE8084008F089
:102678004BBA08BD329802203A98022039980220B5
:1026880000980220109802200C07002068190020EA
:102698000AF042BB38B5254C08F08CFE42F20F73A5
:1026A8002268801A984200D838BD214D01F02AFAD4
:1026B8002B78013B032B36D8DFE803F0021F1C02FE
:1026C80001F07AFB2B78013B032B19D801F02EFA85
:1026D8002B78032B19D0042B22D001F051FA2B7838
:1026E800012B17D0042B18D001F0A8FA08F062FECD
:1026F800206038BD01F0E8FBE4E701F07DFBE1E78D
:1027080001F02EFA2B78032BE5D101F02BFA2B7868
:10271800012BE7D101F03CFAE8E701F05DFAE5E7C3
:1027280001F028FADBE7FFF7B3FFCBE7282F0020FB
:102738003298022000207047704700BF036D0BB12C
:1027480001207047406D003818BF0120704700BF56
:1027580010B50446806D18B10EF010FA0023A36579
:10276800236D2BB104F11800BDE8104007F038B90B
:10277800636D002BF6D110BD10B50446806D00B115
:1027880010BD4FF480700EF0F1F9A065B0B10022D1
:10279800236D02703BB101464FF48072184606F073
:1027A8006FFDA06D10BD636D002BE9D001464FF49D
:1027B8008072184604F0FCFCA06D10BD014B184651
:1027C800A36510BD2E98022038B5056D6DB10BB10B
:1027D800002038BD1146284605F078FD0028F7D0BE
:1027E8002846BDE8384005F013BF446D002CEFD0F3
:1027F800204603F08BFC0028EAD02046BDE838408C
:1028080004F0FEBA8A79A2F150031B0622D402F220
:102818006C72F0B54B7985B0046D01330D798E7803
:102828004F78DBB209784CB1204601960095CDE986
:102838000271042105F080FE05B0F0BD406D00284E
:10284800FAD001960095CDE90271042104F01CFA32
:1028580005B0F0BD0020704710B50446006D80B18A
:10286800037813F0700F00D110BD002105F02EFD84
:10287800606D0028F8D000220023BDE8104003F066
:1028880045BC606D0028EFD090F8313013F0500F40
:10289800EAD000220023BDE8104003F037BC00BF97
:1028A800036D10B50C4682B02BB30DF1060201A9D9
:1028B800184605F0B1F838B3BDF80430BDF8062065
:1028C80053EA020120D0C2F3451C02F01F00D20ACD
:1028D800C3F34311400084F801C0A2705A0A0139B9
:1028E80003F01F0302F5EA62207001206171237171
:1028F800A27102B010BD406D30B10DF1060201A900
:1029080003F0AAFA0028D7D1002002B010BD00BFFA
:10291800036D10B50C4682B02BB30DF1060201A968
:10292800184605F069F838B3BDF80430BDF806203C
:1029380053EA020120D0C2F3451C02F01F00D20A5C
:10294800C3F34311400084F801C0A2705A0A013948
:1029580003F01F0302F5EA62207001206171237100
:10296800A27102B010BD406D30B10DF1060201A98F
:1029780003F060FA0028D7D1002002B010BD00BFD4
:10298800006990B10368154A1B69934225D1036D0C
:1029980063B1187810F0080007D0D8695B69C01ACD
:1029A80048BF6FF00040704718467047436D002BD2
:1029B800FAD093F8310010F00800F6D018691968B9
:1029C8005A69401A5B6862EB0303B0F1004F73F178
:1029D8000003EAD36FF0004070471847B90C0000B5
:1029E800036973B11A68084952698A4207D1186D98
:1029F80008B105F0F7BA586D18B103F071BB184665
:102A080010474FF0FF307047510B0000036963B166
:102A18001A68074992698A4208D1186D08B105F009
:102A280085BD586D08B103F0B9BF70471846104707
:102A3800E10B0000036923B31968134A10B58C68C9
:102A480082B0944214D1186D48B101220DF10701EA
:102A580005F0F4F990B19DF8070002B010BD586D6B
:102A68000028F8D001220DF1070103F069FAF1E717
:102A780001220DF107011846A047EBE74FF0FF30A0
:102A8800EBE74FF0FF307047910B000000B500698D
:102A980083B08DF8071060B10368104ADB68934271
:102AA80015D1036D43B101220DF10701184605F058
:102AB800E9FD03B05DF804FB406D0028F9D0012260
:102AC8000DF1070104F00EFA03B05DF804FB0122D2
:102AD8000DF10701984703B05DF804FB090C0000ED
:102AE800036D13B1586900217047436D13B1D3E9E1
:102AF8000001704718461946704700BF036D13B1AF
:102B0800D86900217047436D13B1D3E904017047B8
:102B180018461946704700BFF0B595B000224FF42B
:102B28007A74244F1831054604A88DF80C200097B4
:102B3800CDE90124CDE9122206F0BEFF129B002B3D
:102B48002DD05C20002608F075FD019B04464660E8
:102B5800C36004A9029B183040F8083C9DF80C306B
:102B680000F8043C144B40F8183C144B40F8103C57
:102B780006F0F4FE124B4FF47A72A7602B6063687C
:102B8800A66501336E602E73AA602C6163600D4BDD
:102B980004A8009306F024FF284615B0F0BD139B47
:102BA800002BCED1064A2B732A602B61C5E901346C
:102BB800EDE700BF100D0020340D0020900D00201F
:102BC800E40C0020D00B0020836C13B1184605F0EC
:102BD80009BAC06C08B103F083BA4FF0FF307047F0
:102BE800036D13B1184605F0FDB9406D08B103F047
:102BF80077BA4FF0FF307047036D33B11B7813F08D
:102C0800700F14BF012000207047406D30B190F85C
:102C1800313013F0500F14BF01200020704700BF5F
:102C2800036D13B1184605F009B9406D08B103F0FA
:102C380087B94FF0FF307047836C00B583B063B13C
:102C480001220DF10701184605F0F8F801280CD10A
:102C58009DF8070003B05DF804FBC06C28B10122A1
:102C68000DF1070103F06CF9F0E74FF0FF30F1E7E1
:102C7800036D13B1184605F059BC406D08B103F057
:102C88008DBE7047836C13B1184605F04FBCC06CFD
:102C980008B103F083BE7047036D13B1184605F001
:102CA800F1BC406D08B104F01DB97047836C13B1D5
:102CB800184605F0E7BCC06C08B104F013B97047BA
:102CC80000B5836C83B08DF8071043B101220DF174
:102CD8000701184605F0D6FC03B05DF804FBC06C8C
:102CE8000028F9D001220DF1070104F0FBF803B028
:102CF8005DF804FB8A79A2F150031B0622D402F284
:102D08006C72F0B54B7985B0046D01330D798E780E
:102D18004F78DBB209784CB1204601960095CDE991
:102D28000271022105F008FC05B0F0BD406D0028D5
:102D3800FAD001960095CDE90271022103F0A4FFB3
:102D480005B0F0BD00207047036D53B1187810F03E
:102D580008000DD0D8695B69C01A48BF6FF0004001
:102D68007047436DA3B193F8310010F0080000D10B
:102D78007047186919685A69401A5B6862EB03035F
:102D8800B0F1004F73F10003F2D36FF000407047C9
:102D98001846EDE7836C53B1187810F008000DD091
:102DA800D8695B69C01A48BF6FF000407047C36CB0
:102DB800A3B193F8310010F0080000D170471869EA
:102DC80019685A69401A5B6862EB0303B0F1004F57
:102DD80073F10003F2D36FF0004070471846EDE737
:102DE8000369D3B10E4810B41C68E46884420FD15B
:102DF800186D18B15DF8044B05F044BC586D18B156
:102E08005DF8044B04F06EB800205DF8044B704781
:102E1800184623465DF8044B18470020704700BF4A
:102E2800090C000038B504460C4B806D236018B1BE
:102E38000DF0A4FE0023A365236D04F118054BB122
:102E4800284606F0CDFD064B2846A36006F0C8FDCF
:102E5800204638BD636D002BF2D1F4E7340D002015
:102E6800D00B002038B504460E4B806D236018B196
:102E78000DF084FE0023A365236D04F118056BB1E2
:102E8800284606F0ADFD084B2846A36006F0A8FDCD
:102E980020465C2108F0D0FB204638BD636D002B2E
:102EA800EED1F0E7340D0020D00B002030B4029CA6
:102EB80011469C4634B1012C1CD0022C0ED00020A7
:102EC80030BC7047056DF5B14FF0FF33934274EB9A
:102ED8000C04F4D3284630BC05F0F8B9026D0AB3E7
:102EE800D36959184CF10003002BE8D1104630BCC7
:102EF80005F0ECB9026D62B1536959184CF1000341
:102F0800002BDCD1F2E7406D0028D8D030BC03F0AC
:102F1800FDB8406D0028D2D0D0E900238A184CEBC8
:102F28000303F3E7406D0028C9D0D0E9042330BC7F
:102F38008A184CEB030303F0E9B800BF70B5244BC3
:102F4800044605690360002D32D06E68013E6E604C
:102F580076BB2B681F4ADB6A93422FD1A86D10B14C
:102F68000DF00CFEAE652B6D23B305F1180006F0CD
:102F780037FD2569E5B12B68174A5B68934224D170
:102F8800164BA86D2B6018B10DF0F8FD0023AB654A
:102F98002B6D05F11806A3B1304606F021FD104B44
:102FA8003046AB6006F01CFD5C21284608F044FB67
:102FB800204670BD6B6D002BD7D1DAE728469847BD
:102FC800D7E76B6D002BE7D1E9E728469847EFE78D
:102FD800E40C0020C1060000D50D0000340D0020CF
:102FE800D00B002070B5264B044605690360002D00
:102FF80032D06E68013E6E6076BB2B68214ADB6A70
:10300800934233D1A86D10B10DF0B8FDAE652B6DAC
:1030180043B305F1180006F0E3FC2569E5B12B6818
:10302800194A5B68934228D1184BA86D2B6018B1D8
:103038000DF0A4FD0023AB652B6D05F11806C3B197
:10304800304606F0CDFC124B3046AB6006F0C8FCAB
:103058005C21284608F0F0FA2046142108F0ECFA22
:10306800204670BD6B6D002BD3D1D6E72846984714
:10307800D3E76B6D002BE3D1E5E728469847EBE7EC
:10308800E40C0020C1060000D50D0000340D00201E
:10309800D00B0020F0B5002483B0124F124D134E10
:1030A80000230193019BB3F57A7F06DA019B013374
:1030B8000193019BB3F57A7FF8DB1221384609F0BA
:1030C800ADFD21462846013407F012FD01213046A6
:1030D80009F0A4FD284607F017FD642CE0D103B0E1
:1030E800F0BD00BFA40B002068190020B80B002019
:1030F80008B50A21034809F091FD0348BDE80840D6
:1031080007F002BDBC0B00206819002010B50C4C5C
:1031180008210C4809F082FD204607F0F5FC102133
:10312800094809F07BFD204607F0EEFC1D21074801
:1031380009F074FD2046BDE8104007F0E5BC00BF6B
:1031480068190020640B0020700B0020840B0020FD
:10315800014B0360704700BF780E002010B5044C87
:10316800204607F09FFC2046BDE8104007F0CCBC85
:1031780068190020704700BF704700BF00224FF455
:103188007A7110B4074C02740460074C42614460C1
:103198005DF8044BC0E9022100F51031C1F85C2547
:1031A800704700BFF40B0020E40C0020F0B50C467B
:1031B8008BB02C210546204607F0ACFE07462C2193
:1031C800204607F0B7FEB0F1FF3F18BFB7F1FF3F49
:1031D80049D03A1A0646B2FA82F25209002A42D176
:1031E8003B46214601A807F0E5FE33467A1C2146F6
:1031F80005F5103704A807F0DDFE2146721C07A864
:1032080007F0ACFED7F85C4507A805EB840407F087
:10321800FBFE04A884ED070AD7F85C4507F0F4FE26
:1032280043F2760301A82344D7F85C4505EB8303F2
:1032380083ED010A07F0E8FE46F2E60307A82344F7
:1032480005EB8305D7F85C35013385ED010AC7F82E
:103258005C3507F09BFD04A807F098FD01A807F06E
:1032680095FD0BB0F0BD1321044809F0D7FC0448C4
:103278000BB0BDE8F04007F047BC00BF540A00207F
:10328800681900202DE9F0470C4698B0054613212F
:10329800A44809F0C3FC34B120460FF0F9FC0146FC
:1032A800204609F0BBFC02219F4809F0B7FC9F4863
:1032B80007F02AFC002322469D4904A8AC6106F0C9
:1032C800A9FC169B002B00F047815C20002608F023
:1032D800B1F9984B044608A9DFF874A2C0E9003692
:1032E800059B183040F80C3C934B40F8103C069B6B
:1032F80040F8083C9DF81C3000F8043C06F02EFB12
:103308006368A66508A80133CDF810A063608B4BED
:10331800A36006F065FB6E69002E7BD07768013FDD
:103328007760002F34D13368854ADB6A934240F0D6
:103338004081B06D10B10DF021FCB765336D002BE5
:1033480000F01F8106F1180006F04AFB6E69FEB115
:1033580033687C4A5B68934240F03B81754BB06DA3
:10336800336018B10DF00AFC0023B365336D06F124
:103378001807002B00F02381384606F031FB384649
:10338800C6F808A006F02CFB30465C2108F054F97A
:103398006C61002C49D023686B491A6B8A423FD173
:1033A800226D002A00F0E88005F10408DFF8A491F6
:1033B80005F5103743F26F0600E023681B694B459B
:1033C8003DD1236D002B00F093801A7811073AD570
:1033D800D8695B69C01A34D5D7F85C35B34232DC9A
:1033E80000230A22414601A807F0AEFB01A904A860
:1033F80007F0B0FC04A92846FFF7D8FE04A807F098
:10340800C5FC01A807F0C2FC6C69002CD5D118B026
:10341800BDE8F08723684C491A6B6C618A42BFD0BB
:1034280020469047002840F0B1801821474809F00D
:10343800F5FB3E4818B0BDE8F04707F065BB2046ED
:1034480098470028C8D16C69002CE0D023683C4F0D
:10345800DB6ABB4240F0A580A06D18B10DF08EFB71
:103468000023A365236D002B00F0968004F118005B
:1034780006F0B6FA6E697468013C7460002C32D1AB
:103488003368DB6ABB4240F09780B06D10B10DF035
:1034980075FBB465336D002B00F0868006F11800CB
:1034A80006F09EFA6C69F4B12368264A5B68934279
:1034B80040F092801F4BA06D236018B10DF05EFBA9
:1034C8000023A365236D04F11806002B7CD0304639
:1034D80006F086FA3046C4F808A006F081FA5C21A6
:1034E800204608F0A9F800236B6118B0BDE8F08702
:1034F800636D002BA7D093F831201207A3D51A6863
:103508001869801A5A695B6862EB0303B0F1004FCF
:1035180073F1000395D36FF0004000287FF45CAF8F
:1035280091E700BF200A0020340A00206819002013
:10353800C4290020340D0020900D0020100D00201B
:10354800C1060000D50D0000AD060000380A0020B5
:10355800D00B0020B90C0000179C002C7FF4B5AEEE
:10356800DFF87CA008A8CDF810A006F039FA6E693B
:10357800002E7FF4D3AE58E7626D002A7FF414AFB3
:1035880053E7736D002B7FF4DDAEDFE66C69002C2A
:103598003FF43DAF236807E7636D002B7FF466AF08
:1035A80068E72046984765E7736D002B7FF476AF90
:1035B80078E730469847C9E63046984772E7736D12
:1035C800002B7FF4D9AEDAE6636D002B7FF47FAF72
:1035D80080E730469847DBE62046984783E700BFF8
:1035E800D00B0020D1ED007AF4EEC07AF1EE10FA9B
:1035F8002CDA6FF0404018444FEA800C01EB800051
:1036080090ED007AB4EEC07AF1EE10FA1DD9013BC4
:10361800002B17DD04314FF0040C002001E0F1EC21
:10362800017AF4EEC07AF1EE10FA06D891ED007A3C
:10363800B4EEC70AF1EE10FA0BD901300CF1040C04
:103648008342ECD19FED0C0A7047624492ED000A68
:10365800704702EB8000624437EE677AD2ED006A69
:1036680070EE677A90ED000A76EEC06A86EE876A99
:10367800A6EE270A704700BF00000000044A014672
:1036880000F5103302441C31D3F85C35FFF7AABFAC
:103698009C8301004CF2DC12014600F51033024411
:1036A8001C31D3F85C35FFF79DBF00BF70B50446E9
:1036B8000D461648FE2106F03FFF28B12946204650
:1036C800BDE87040FFF7DEBD1E21114809F0A6FADB
:1036D80010480E4D104C064607F016FA04E009F0A3
:1036E8009DFA304607F010FAFE21284606F024FF1E
:1036F80003460B212046002BF1D01921074809F079
:103708008DFA0448BDE8704007F0FEB9C0290020D2
:10371800CC09002068190020EC090020F8090020D5
:103728000149FFF7C3BF00BF140A00200022044963
:103738004FF0010CC0E9002281F800C0704700BFBB
:10374800329802200368022B02D8013303607047C5
:103758001A4A1378013B032B2ED8DFE803F0022224
:103768001310F2EE047AB4EEE71AF1EE10FA06D46A
:10377800F3EE047AB4EEE70AF1EE10FA1AD5002354
:1037880043607047F5EEC00AF1EE10FAF7DC042149
:1037980043680133032B436002D90023117003608F
:1037A8007047FAEE047AB4EEE71AF1EE10FAE6DCA6
:1037B8000321EDE70221EBE70121E9E73298022036
:1037C800DFED2B7A08B52DED048B70EE678A9FED3F
:1037D800299AB0EE680A0CF0DBFEB0EE408AB0EE33
:1037E800680A0CF0D1FD9FED247A28EE098AA0EE34
:1037F800097A9FED1B6BB7EEC88AB7EEC77AA7EEBA
:10380800476BB5EE406BF1EE10FA20D4B1EEC67BF3
:103818009FED1A6ADFED1A6A38EE078B9FED197A69
:10382800F2EE007A9FED100B30EE480BBDEC048BE6
:10383800B7EEC00B20EE270AC0EE067A67EE877A4D
:1038480087EEA67AFDEEC77A17EE900A08BDB0EEAD
:10385800460B0CF0DDFBB0EE407BD9E7AFF3008000
:10386800000000A0809EBA40000000C00EE8594049
:103878007FE93C3D6D2302429A992D425C8F22409C
:103888006666E63F0000B44370B5254A0446254BFA
:103898004569C0E90023002D32D06E68013E6E6094
:1038A80076BB2B68204ADB6A93422FD1A86D10B1F2
:1038B8000DF064F9AE652B6D23B305F1180006F021
:1038C8008FF86569E5B12B68184A5B68934224D183
:1038D800174BA86D2B6018B10DF050F90023AB659C
:1038E8002B6D05F11806A3B1304606F079F8114B97
:1038F8003046AB6006F074F85C21284607F09CFE61
:10390800204670BD6B6D002BD7D1DAE72846984763
:10391800D7E76B6D002BE7D1E9E728469847EFE733
:10392800F40B0020E40C0020C1060000D50D0000B7
:10393800340D0020D00B00202DE9F0435C4D85B0FC
:103948005C4C40F2EE285C4FDFF8B4912E6809F029
:10395800E3F92378002B00F09D803B78DA0740F1EB
:1039680099802B68D9F800209B1A0E2B40F2928080
:1039780009F0D2F92378002BFAD03B78DB07F7D58A
:103988002B68D9F800209B1A0E2BF1D910214B482F
:1039980009F044F94A4C4B4807F0B6F801210520D4
:1039A800494D04F11807494E07F06AFD2046B7EE65
:1039B800000AD6ED000A0834FEF78AFC2846B1EE64
:1039C800040AD6ED000AFEF783FCBC4205F108059F
:1039D800ECD13F4BB7EE000A3E48D3ED000AFEF7A4
:1039E80077FC9FED3D0A3D48FEF71CFE1C213C4834
:1039F80009F014F9334807F087F83A493A48FFF7CD
:103A080055FE0121052007F0FFFC4FF47A7007F0FE
:103A18007DFC0021052007F0F7FC3448FEF708FD7F
:103A28003248FEF7DBFD9FED320AFFF7C9FE01467B
:103A38002E48FEF7C3FD4FF47A7007F067FC0021AB
:103A48002A48FEF7BBFD4FF4FA7007F05FFC2748E1
:103A5800FEF7C8FD0121052007F0D6FC4FF47A7067
:103A680007F054FC0021052007F0CEFC214901A8ED
:103A780007F052F901A92048FFF770FB01A807F0E9
:103A880085F907F097FC1D4B186005B0BDE8F043B9
:103A9800FEF7D2BD2B6822789B1B32B1B3F5FA6FC3
:103AA8003FF666AF09F038F951E74345FAD95FE7C1
:103AB800009802203A980220399802208C1600209B
:103AC800D4510020681900203C320020F022002048
:103AD800F4220020EC5100200AD7A33B58320020E2
:103AE800A0160020140A00207C520020E89702202B
:103AF8009A99993EC016002078520020AC2E0020DA
:103B0800109802200549064A064B074891ED001A0D
:103B1800D2ED000A93ED000AFFF714BE0852002008
:103B28001C980220F8220020E097022010B50A4BCA
:103B380084B00A4C022193ED000A01A807F062F94B
:103B480001A9204606F0AEFF204606F0DDFF01A8D9
:103B580007F01CF904B010BD543200206819002089
:103B6800704700BF024B4FF40032C3F888207047FB
:103B78000040004200210148FEF720BDE8970220DE
:103B8800024B4FF40032C3F88420704700400042D3
:103B980010B50D4C07F00EFC0C4B2268801A9842A9
:103BA80008D80B4B984204D90A4B4FF48072C3F8DB
:103BB800882010BD074B4FF48072C3F8842007F0AB
:103BC800F9FB206010BD00BF942E002088334E0002
:103BD80048E8010000C0004210B5134C07F0EAFBAA
:103BE800124B2268801A98420FD8114B984206D877
:103BF800104B984211D8104B984200D810BD0021A4
:103C08000520BDE8104007F0FFBB0121052007F0A3
:103C1800FBFB07F0CFFB206010BD01210520BDE8AC
:103C2800104007F0F1BB00BF942E0020F0BC5700F5
:103C3800B0710B006889090048E80100024B4FF495
:103C48008072C3F88820704700C000422DE9F8430D
:103C580007F0B0FB434A444B12681B68821ADFED39
:103C6800436AC31A424D07EE102A424A07EE903AB9
:103C78004149B8EE477A1368F8EE677A984287EEBA
:103C8800260A87EEA67A85ED000A81ED007A30D9FA
:103C9800C31A07EE903AB8EE677AC7EE267A374924
:103CA800374C384E384F106038480B60C6ED007AF4
:103CB800FFF7F0FC84ED000A07F07CFB3B68C01AB4
:103CC80045F6D813984219D8314832490368324A20
:103CD800B3F57A7F01EB830102EB83022568B8BF55
:103CE80001333468A8BF00230D6014600360BDE889
:103CF800F883DFED2A7A42F21073D0E7234895ED76
:103D0800000AFFF7BBFC264D264BDFF8A49083ED95
:103D1800000A2B682448C9F80030FEF7EDFA85ED53
:103D2800000A07F047FB3B68DFED106AC01ADFF8AE
:103D3800848007EE900AF8EE677A87EEA67A88ED17
:103D4800007A07F037FB99ED007AD5ED007AD8EDC7
:103D5800006A77EEC77A154B386087EEA67A83ED4E
:103D6800007AB1E7AC2E0020A42E0020002474496C
:103D7800DC970220E02E00209C2E0020381D002019
:103D880008520020F0220020A82E00207C5200209B
:103D980008420020683200200C4200200AD7233C49
:103DA800F8220020F4510020EC510020EC220020E1
:103DB80024520020F422002008B5FFF747FF0A4AE2
:103DC8000A49136801338B4213600BDD084B00214D
:103DD8000848D3ED007A90ED007A116077EE877A83
:103DE800C3ED007A08BD00BFF8510020A08601008D
:103DF800FC220020F822002010B507F0DBFA264B41
:103E08001860FFF723FF2548037893BB244C254906
:103E1800254AD4ED007A01F57A6373ED016A32ED33
:103E2800017A9942E6EE877AF7D10123C4ED007A48
:103E380003701E4B1E4A93ED007AD2ED005A37EEFE
:103E4800877A9FED1C5A1C4975EEA77A27EE057AEA
:103E580091ED006AC2ED007AB7EEC66AB7EEC77A8E
:103E68009FED0B4BA6EE047BB7EEC77B83ED007A84
:103E780010BD1249124AD1ED007A92ED007A084B32
:103E880067EE877AC3ED007AD3E700BFAFF300800F
:103E980000000000E07A843FA42E00202F98022022
:103EA800FC51002068320020AC5100201C980220F0
:103EB80000520020A4707D3FEC2200200852002010
:103EC800F02200200000000070B5FFF7BFFE384860
:103ED8000378002B59D1374C3749384AD4ED007A4A
:103EE80001F57A6373ED016A32ED017A9942E6EEE3
:103EF800877AF7D10123324EC4ED007A0370314C32
:103F0800314B94ED007AD3ED005A37EE877A9FED66
:103F18002F5A2F4A75EEA77A2E4D27EE057A92ED85
:103F2800006AC3ED007AB7EEC66A2B4AB7EEC77AC5
:103F380092ED000A9FED1C4BA6EE047BB7EEC77B03
:103F480084ED007AFEF7D8F8244BF0EE407AD4EDF1
:103F5800000A93ED000AC5ED007AFEF7E5F8F0EEE9
:103F6800400A1F4B96ED001A95ED000AC3ED000AB2
:103F7800FEF7EAF81B4B83ED000AFFF721FC014628
:103F88001948BDE87040FEF719BB184A0C4ED2ED2F
:103F9800007A96ED007A074B67EE877AC3ED007AD0
:103FA800ADE700BFAFF3008000000000E07A843F77
:103FB8002F980220FC51002068320020AC510020CC
:103FC800F02200201C98022000520020A4707D3F9F
:103FD800EC220020AC5100209C2E0020F82200206A
:103FE8002852002054320020E8970220085200206E
:103FF80010B50A480A4CFEF711FA0A48FFF796FB73
:104008002046FFF7BBF82046074A084909F010F890
:104018000748BDE81040FFF79BB800BFE8970220AB
:104028007C520020E0970220481D0020F91700006C
:104038007852002090F8A32090F8A200101A704738
:1040480090F8A23090F8A3209A4205D95A1C03444C
:1040580080F8A220987E70474FF0FF30704700BF6D
:1040680090F8A23090F8A3209A4202D91844807E92
:1040780070474FF0FF307047704700BF0346B0F8F5
:10408800300178B193F82F21882A03D90122002022
:104098005A60704702F1010C01201A4483F82FC1BD
:1040A80082F8A510704700BF38B5B0F830410CB998
:1040B800204638BD90F82F310546C3F18904A24245
:1040C8000DD8144605F1A5002246184407F018FA41
:1040D80095F82F312046234485F82F3138BD012229
:1040E8004260EFE7F8B506690446D6F8145115F4AE
:1040F800706301D0C6F81431A8070BD5D6F8702123
:1041080011043DD50023012184F8A230234484F80A
:10411800A3109A76EA0710D594F83071F7B194F89D
:104128002E7194F82F31BB4226D97B1C274484F882
:104138002E3197F8A530C6F86031AB050DD594F847
:10414800A30018B1D4F83C3103B198470023A4F870
:10415800A230A4F82E3184F83031F8BDD4F83831C3
:1041680003B19847002384F82E31012384F83031B5
:1041780094F82F31BB42D8D80023C6F86031DCE769
:1041880094F8A330872BC5D8591CC9B2BEE700BF25
:104198000148FFF7A7BF00BF781900200148FFF7C3
:1041A800A1BF00BFB81A00200148FFF79BBF00BF9E
:1041B800F81B0020014B024A1A607047B029002002
:1041C80078190020024B002202491A7119607047C1
:1041D800A829002078190020704700BF70B58AB060
:1041E8000E4600F128011C4601A8154600F008FDFE
:1041F800BDF904309FED116AB0FA80F006EE903AEE
:10420800BDF90630400907EE103ABDF90830F8EE5E
:10421800E66A07EE903AB8EEC77AF8EEE77A66EE05
:10422800866A27EE067A67EE867AC6ED006A85ED1D
:10423800007AC4ED007A0AB070BD00BF00000039F2
:1042480070B58AB00E4600F128011C4601A8154633
:1042580000F0D6FCBDF91030DFED117AB0FA80F02D
:1042680006EE103ABDF91230400906EE903ABDF953
:104278001430B8EEC66A07EE103AF8EEE66AB8EE01
:10428800C77AC6EE275A86EEA76AC7EE276AC6ED32
:10429800005A85ED006AC4ED006A0AB070BD00BF1F
:1042A8006F12834110B5044682B004F128010DF164
:1042B800060000F02BFCBDF80600B4F8BC20C0F3E3
:1042C8000E031043A4F8BC3000F4004002B010BD47
:1042D80010B5044682B004F128010DF1060000F083
:1042E80015FCBDF80600B4F8BC2020F48043104348
:1042F800A4F8BC3000F4804002B010BD00000000FB
:1043080000B502468FB00023012101A828328DF89C
:10431800043000F0DBFF9DF806200123934000EEF7
:10432800103A9FED057BB8EEC00B20EE070BB7EEF9
:10433800C00B0FB05DF804FBF6285C8FC2F5D83FC0
:1043480010B502468EB0012401A8283221468DF806
:10435800044000F0BBFF9DF8063004FA03F300EEBA
:10436800103A9FED057BB8EEC00B20EE070BB7EEB9
:10437800C00B0EB010BD00BFF6285C8FC2F5D83F49
:1043880070B582B00E4600F190011C46684615468D
:1043980001F0DCFABDF90030B0FA80F006EE903A90
:1043A800BDF90230400907EE103ABDF90430F8EEC5
:1043B800E66A07EE903AB8EEC77AF8EEE77AC6ED05
:1043C800006A85ED007AC4ED007A02B070BD00BFC6
:1043D80010B50446903001F0F7FAB4F8B80000F4CC
:1043E800807010BD014600B587B0903101A801F07A
:1043F8006BFA9DF80630072B07D8064A02EB8303B1
:1044080093ED000A07B05DF804FB9FED030A07B0BF
:104418005DF804FBEC0600200000000030B54FF406
:1044280084739FB04FF480700125ADF812300022DC
:10443800ADF8463040F20113ADF8000001A8ADF820
:1044480014300C46ADF848304FF00113ADF8085061
:104458008DF810208DF84A208DF84450019300F013
:10446800D7FA08B11FB030BD22462946042000F013
:10447800D3FC0028F6D12246022104A800F064FDEE
:104488000028EFD122460221684600F05DFB1FB0EC
:1044980030BD00BF00B587B0002301A88DF80530F6
:1044A80001F08EF907B05DF804FB00BF10B40748AF
:1044B80000230749074C01604460074A07495DF833
:1044C800044B83600373036108F0B2BDE028002049
:1044D800180C002078190020481D002049210000F0
:1044E80000B561B3013900F1FF3C4FF0000E50FAFE
:1044F80081F105E0136843F0020313608C450CD08A
:104508001CF8013F022B15D00AD8002BF2D11368F2
:104518008C4543F001031360F2D170465DF804FB4B
:10452800202B04D1536843F001035360E6E76FF092
:10453800070EE3E7136843F004031360DEE78E46D3
:1045480070465DF804FB00BF70B4B0F9044083B056
:10455800ADF804409DF8186004689DF81C5000945C
:104568009DF82040B6B902AE06EB410131F9081CAE
:10457800018002A901EB4202CDB932F9082C428030
:1045880002AA02EB4303E4B933F9083C838003B081
:1045980070BC704702AE06EB410131F8081C494275
:1045A80009B2018002A901EB4202002DE5D032F8E0
:1045B800082C524212B2428002AA02EB4303002C9A
:1045C800E2D033F8083C5B421BB2838003B070BC76
:1045D800704700BF002B41D0F0B59F6BA1B01C46BF
:1045E800002F35D0DB6B9BB3236C8BB30E4679B3AE
:1045F800637A15464BB3E27A694663682A44B8473A
:1046080094F84730A072012B6168236C0CBF4FF4FB
:10461800E1700220984794F90A00E0B99DB16A1E3A
:1046280006F1FF3EC6F1010116FA82F20EF180038F
:104638000DEB030CE37A8C449C441CF8803C0EF888
:10464800013F9645F2D121B0F0BD40F08000D2E79D
:104658004FF0FF30F7E76FF00100F4E74FF0FF305D
:10466800704700BF10B5002282B0ADF80420F1B148
:104678008A6B0B46DAB1CA6BCAB10A6CBAB1044686
:10468800022201A94020FFF7A5FF70B99DF8043068
:104698009DF80520D90902F00302A170C3F30211A5
:1046A80003F00F03E2706170237002B010BD4FF089
:1046B800FF30FAE710B5002282B0ADF8042021B32C
:1046C8008A6B0B460AB3CA6BFAB10A6CEAB10446A4
:1046D800022201A94220FFF77DFFA0B99DF804300E
:1046E8009DF80520D909A170C3F380116171C3F346
:1046F800011103F00F036170C2F3C00102F0070259
:104708002370E170227102B010BD4FF0FF30FAE75C
:104718008BB3F8B51C469B6B53B3E56B45B3236C61
:1047280033B30F4621B3637A0646F3B1636839465B
:104738003046A84794F84730A072012B6168236C73
:104748000CBF4FF4E170022098477C2E06D13B78CD
:1047580013F0010318BF012384F8473094F90A00C5
:10476800002818BF6FF00100F8BD00F07F06DDE7F4
:104778004FF0FF30F8BD4FF0FF30704710B5837829
:1047880082B00C46012B3ED9012383700B7A43F08B
:1047980002030B728378012B36D14178032949D95A
:1047A800032330214FF0010E4370237A43F00203B4
:1047B8002372027832B901230370237A43F001038C
:1047C800237202780C2A3BD852B290F803C0BCF18D
:1047D800030F07D94FF0030C80F803C0237A43F086
:1047E8000203237241EACE1123468DF805C042EA3E
:1047F8000100022201A98DF804004020FFF788FF7C
:1048080030B302B010BDC8D04378072B08D81B01BD
:1048180090F802E003F070010278002ACBD0D1E7CB
:10482800072370214370237A43F00203237290F820
:1048380002E0F1E709014FF0010E01F07001EBE72A
:104848000C2303701A46237A43F002032372BCE751
:10485800234601220DF103011B20FFF7BBFE0028B0
:10486800CFD19DF80330C3F382035A1E022AC8D859
:10487800C3F1FC0358B2C4E730B50C46817883B065
:10488800012949D8C9014DB2417803294FD80901F6
:1048980001F0300190F805E0BEF1010F33D84FEA7E
:1048A8008E1E0EF0400E90F800C0BCF1050F07D820
:1048B80006230370237A43F00103237290F800C0A3
:1048C800BCF10D0F3BD8C3784FFA8CFC012B41D8B3
:1048D800DA000379042B02F0080245D85BB22943B9
:1048E8001A4323464EEA01018DF8052002224CEABC
:1048F800010001A98DF804004220FFF709FF0028F4
:1049080039D003B030BD01234FF0400E4371237AF4
:1049180043F002032372C6E701236FF07F0583701B
:10492800237A43F00203237241780329AFD9032382
:1049380030214370237A43F002032372AAE74FF031
:104948000D0C80F800C0237A43F002032372C37869
:10495800012BBDD901230822C370237A43F0020337
:1049680023720379042BB9D904230371207A40F008
:1049780002002072B3E7234601220DF103011B2038
:10498800FFF728FE0028BCD19DF80330C3F382034B
:104998005A1E022AB5D8C3F1FC0358B2B1E700BFCA
:1049A80030B5002383B08DF8073051B38B6B0C46BC
:1049B8003BB3CB6B2BB30B6C1BB305460B460122E9
:1049C8007C200DF10701FFF705FE08B103B030BDEB
:1049D8009DF8072005F0010023460DF1070122F09C
:1049E800010202437C208DF807200122FFF790FE88
:1049F80050B99DF8073003F0010384F8473003B03D
:104A080030BD4FF0FF30E1E76FF00C00DEE700BF8C
:104A18003D4B002270B51B8882B08DF80620ADF89A
:104A2800043000296CD08B6B0C46002B68D0CB6B04
:104A3800002B65D00B6C002B62D0054600285FD098
:104A48000678731E022B58D80B460322532001A95F
:104A5800FFF7C0FD00284ED106F0FD03012B1BD146
:104A6800AA789DF80430520003F0F90302F002021C
:104A78001343EA78920002F0040213432A79D20021
:104A880003F0E70302F0080213436A79120102F007
:104A9800100213438DF80430023E012E1BD8AA7968
:104AA8009DF80530520003F0F90302F002021343A7
:104AB800EA79920002F0040213432A7AD20003F042
:104AC800E70302F0080213436A7A120102F01002A7
:104AD80013438DF805309DF80600234669780322B4
:104AE80020F0010001F0010401A920438DF806001F
:104AF8005320FFF70DFE02B070BD6FF00B00FAE710
:104B08004FF0FF30F7E700BFE806002010B500229D
:104B180082B0ADF8042099B18A6B0B4682B1CA6B9A
:104B280072B10A6C62B1044650B1022201A91C207C
:104B3800FFF750FD10B9BDF80430238002B010BD56
:104B48004FF0FF30FAE700BF9FED2B7B70B584B0C4
:104B58008DED027B002A4BD01446926B002A47D079
:104B6800E26B002A44D0226C002A41D000283FD0B2
:104B780002AAFFF7B5FC08B104B070BD8DF80700B4
:104B8800234601220DF107017D20029D039EFFF7B8
:104B980021FD0028F0D1E90705D59DF8073043F03D
:104BA80004038DF80730AA0705D59DF8073043F0B0
:104BB80002038DF807306B0705D59DF8073043F0E1
:104BC80001038DF8073016F0010205D09DF8073073
:104BD80043F008038DF8073005F007031343CBD0E3
:104BE800234601220DF107017D20FFF791FDC3E760
:104BF8004FF0FF30C0E700BF0000000000000000D9
:104C08002DE9F04300238DB08DF817300B93CDE9D3
:104C18000733CDE90933002900F0F5808B6B0C468A
:104C2800002B00F0F080CB6B002B00F0EC800B6CBD
:104C3800002B00F0E8800546002800F0E4800B46D1
:104C480001220DF117017D20FFF7C4FC002874D163
:104C58009DF81730DF0013F0040807F008076FD13C
:104C680013F0020600F09080BE1D1FB90622122024
:104C780016466FE014220DF11C092346042049460C
:104C8800FFF7A8FC0346002857D18DF81A30604B6F
:104C98001B88ADF818304B4603CBA861E961B8F121
:104CA800000F79D1BEB3002F00F0A480BDF82A1000
:104CB800BDF82C20BDF82E30A981EA812B82B5F9E8
:104CC8000C20B5F91010B4F8443005F10C0013FBB2
:104CD80001F3002BB8BF03F2FF1343F34F23D31A9A
:104CE800B3F5004F80F2838013F5004FC0F28E8039
:104CF8001BB2AB8194F8292094F82830CDE9013211
:104D080094F8272094F82630009294F8252094F8F7
:104D18002410FFF719FC2346032206A91820FFF7E1
:104D280059FC50B99DF819309DF81A101B029DF8CE
:104D3800182043EA014313432B620DB0BDE8F0830A
:104D480013F0020607F1060814D10FBB4FF006084E
:104D58000C2042460DF11C0923464946FFF73AFC50
:104D680003460028E9D18DF81A30294B1B88ADF885
:104D7800183094E74FEA4806002F7FF47BAF0C22E7
:104D88004FF006081046E5E727B938463A46E1E706
:104D98000E2270E708226EE7A8F10608284639F8BF
:104DA800082009EB08032A805A889B886A80AB8010
:104DB80094F82930029394F82830019394F8273016
:104DC800009394F8263094F8252094F82410FFF7DF
:104DD800BBFB002E9FD0002F7FF468AFBDF82430B6
:104DE800BDF92610BDF92220EB8129826BE747F631
:104DF800FF737EE7BDF81E30BDF92010BDF91C20F9
:104E0800EB8129825FE74FF0FF3096E7014B70E7AF
:104E1800E80600200080FFFF30B5134685B0002269
:104E280005460C4658208DF80F200DF10F01012280
:104E38000193FFF7CFFBB8B9032C26D82A01022C1F
:104E4800019BD2B21CD0032C14D0012C0ED02A43C3
:104E58009DF80F1021EA020401220DF10F015820DC
:104E68008DF80F40FFF754FC05B030BD9DF80F409A
:104E78002C43F1E79DF80F100D4342EA0504EBE7D8
:104E88009DF80F1042EA0104E6E76FF00B00EBE72C
:104E98002DE9F04383B08DF80700002951D015465D
:104EA800002A4ED0127DC3B29A4247D988462B4673
:104EB80001220DF107012F20FFF72AFC70BBEA89B8
:104EC8000F2A2ED8D30735D4002630271024B14610
:104ED8000FE0FFF77FFBAB7B1E441F444B44F6B249
:104EE8005FFA83F9FFB2C9F11004E4B2B0B9ACB10A
:104EF800EA89944208EB060138462B461FFA84FCDF
:104F0800E7D24C44624608EB06015FFA84F9FFF7E2
:104F180061FBC9F11004E4B20028E8D003B0BDE891
:104F2800F0832B46102241463020FFF753FB03B095
:104F3800BDE8F083013A92B2EA81C5E76FF0090053
:104F4800ECE74FF0FF30E9E7002A00F0B981936BF6
:104F58002DE9F04F154689B0002B00F0AE81D36BD8
:104F6800002B00F0AA81136C002B00F0A68100280A
:104F780000F0A38192F84770002900F099814B1E38
:104F880000F10A0434263E30DBB2DFF83CA316FBFE
:104F980003030093012F00F06B8114F80A3C092BDE
:104FA8000BD8DFE813F05E01570184000A000A00FD
:104FB8000A000A000A000A0010006FF007031846EA
:104FC80009B0BDE8F08F0023CDE90433CDE90633FD
:104FD8006B7D002BF1D0013B0321DAB2EB69581845
:104FE80011FB020102E003338B42E6D01A78092A4A
:104FF800F9D10DF1100958782A4693F802804946EC
:10500800FFF746FF03460028D9D14FEA580234F883
:10501800081C34F8060C39F81230C1F30A0102F101
:10502800010CC0F30A0003EA0A030B4329F8123003
:1050380013460232D91C39F81C3003EA0A03C8EBBC
:105048004101034334F8040C11F0FF0129F81C3026
:10505800C0F30A0039F8123003EA0A0343EA0003EE
:1050680029F812300CD00DF111030139434453FAD9
:1050780081F109EB08031A7803F8012B9942FAD158
:105088002B46494610223020FFF742FB0346002BEF
:1050980095D13434009AA2427FF47CAF012F8ED18F
:1050A8002946012009B0BDE8F04FFFF779BC14F894
:1050B800033C43B9012304F8033C2B7A43F0010372
:1050C8002B7214F8033C0B2B06D90B2304F8033C72
:1050D8002B7A43F002032B720DF110092B460122A3
:1050E8006B204946FFF776FA034600287FF467AF3E
:1050F80014F8083C49469DF810206B205B0122F00B
:10510800200203F02003134301228DF810302B46B0
:10511800FFF7FEFA034600287FF451AF2B46ADF89F
:1051280010008DF80F00022249464B20FFF752FA73
:10513800034600287FF443AF9DF811304FF015085F
:1051480014F8072C03F07F0314F8041C43EAC21375
:1051580014F8062C01F00301920123F0400302F039
:105168004002134314F8052C920023F00C0302F0BC
:105178000C0213439DF8102023F0030302F00102F0
:105188000B438DF8113014F8013C42EA43038DF8C3
:1051980010300AE0D5F840B008F1FF38696842F2EB
:1051A8001070D84718F0FF086ED0AE6B2B4601225E
:1051B8000DF10F010320002EECD0EE6B002EE9D08C
:1051C800D5F840B0BBF1000FE6D0FFF703FA9DF821
:1051D8000F3003F004030343DBB2002BDAD12B4674
:1051E800494602224B20FFF793FA2A6C01904FF4AC
:1051F8007A7069689047019B002B7FF4E0AE14F841
:10520800072C002A43D00123EB7514F8053C2B76B4
:105218002B46012249464420FFF7DCF903460028C3
:105228007FF4CDAE14F8033C494614F8022C442010
:1052380003F00F0343EA021301228DF810302B46C6
:10524800FFF766FA2A6C01904FF47A706968904704
:10525800019B1CE72946A4F10800FFF70DFB034654
:1052680015E72946A4F10800FFF788FA03460EE778
:1052780029460020FFF794FB034600283FF48DAE33
:10528800184609B0BDE8F08F6FF00E0397E6214687
:105298000122EB754D202B46FFF73AFA2A6C019054
:1052A8004FF47A7069689047019B002BB0D086E66E
:1052B800012F3FF4F5AE0B4681E64FF0FF337EE653
:1052C8004FF0FF331846704700F8FFFF002A00F040
:1052D8002381936B2DE9F047154684B0002B00F02D
:1052E8000B81D36B002B00F00781136C002B00F0AF
:1052F8000381002800F0008192F84770002900F02F
:1053080007810139A7F1010700F13E0300F10A0402
:10531800B7FA87F7C8B234264FF000087F094FF074
:10532800030916FB003614F80A3CA3F10202B2FA8C
:1053380082F25209032B88BF42F0010212B1002FFA
:1053480040F0D080092B06D8DFE803F0C6B96D0518
:1053580005050505050A6FF0070004B0BDE8F087EC
:10536800697DCDE90088CDE902880029F3D00139AB
:10537800EB69C9B2DA1C19FB012102E00333994237
:10538800E9D01A78092AF9D12A466946587893F853
:1053980002A0FFF77DFD0028DFD104AA0AF101036E
:1053A80004A8343452FA83F313F8101C0AF10303E7
:1053B80052FA83F313F8102C0AF1020350FA83F31C
:1053C80013F8103C43EA02230AF11002C3F30A035C
:1053D80024F83A3C0AF1050350FA83F313F8100C49
:1053E8000AF104030DEB020A04AA52FA83F31AF82D
:1053F800102C13F8103C42EA012243EA0023C2F3BE
:105408000A02C3F30A0324F83C2C24F8383CB442BB
:1054180089D10020002FA0D02946012004B0BDE882
:10542800F047FFF7BDBAAB6B002B65D0EB6B002BD9
:1054380062D02B6C002B5FD02B46012269466B2073
:10544800FFF7C8F8002888D19DF800300222ADF88F
:1054580000006946C3F340134B2004F8083C2B4670
:10546800FFF7B8F800287FF478AF9DF801309DF871
:105478000020C3F38011520804F8061CC3F381010D
:1054880004F8012CDA0903F0030304F8051C04F8F6
:10549800072C04F8043C92B32B46012269464420A9
:1054A800FFF798F800287FF458AF9DF800301A09E4
:1054B80003F00F0304F8022C04F8033C07E0294624
:1054C800A4F10800FFF7F6F800287FF446AF34345B
:1054D800B4427FF428AF9CE72946A4F10800FFF7FF
:1054E800C1F8F1E729460020FFF75AFA00287FF4AF
:1054F80034AF14F80A3C25E74FF0FF302DE72B4670
:10550800012221464D20FFF765F80028C4D024E782
:10551800012F81D0084620E74FF0FF30704700BFC9
:1055280010F5805F41D000293DD1D18C00293CD0B5
:105538000B469B03B3FBF1F1A1F5804109B201FBD6
:1055480001F3002BB8BF7F334FEAE31C92F82430F5
:1055580013FB01F392F91A10DB01A03100B592F99F
:1055680025E00EFB0C33002BB8BF03F2FF135B12D0
:1055780003F5801301FB03F3002BB8BF03F6FF7399
:105588001B1303FB00F0002802DA00F5FF501F3060
:1055980092F9183040F34F3010EBC30048BF0F307A
:1055A80000115DF804FBD38CC3E70148704700BFC6
:1055B8000080FFFF10F5805F41D000293DD1D18CDC
:1055C80000293CD00B469B03B3FBF1F1A1F58041C8
:1055D80009B201FB01F3002BB8BF7F334FEAE31C8C
:1055E80092F8243013FB01F392F91B10DB01A03170
:1055F80000B592F925E00EFB0C33002BB8BF03F27F
:10560800FF135B1203F5801301FB03F3002BB8BFF4
:1056180003F6FF731B1303FB00F0002802DA00F502
:10562800FF501F3092F9193040F34F3010EBC30090
:1056380048BF0F3000115DF804FBD38CC3E7014865
:10564800704700BF0080FFFF10F5804F09D0B2F906
:105658001E3033B130B4948B01B124B9174830BC33
:10566800704716487047D58C002DF7D04D1BB2F9FE
:1056780022C0128CA0EB0C0012FB05F501FB04F212
:10568800C0030F4C002D4FEA420247F6FF71B8BF26
:10569800033502F50042A0EBA50003EB224390FB83
:1056A800F3F0A042B8BF20468842A8BF08460028A9
:1056B800B8BF0F3040F30F10D1E700BF0080FFFFE5
:1056C8000180FFFF9BB1F8B51C46DB6863B1276911
:1056D80057B1636943B1636833B129B122B1B8479F
:1056E800034600202372F8BD4FF0FF30F8BD4FF09D
:1056F800FF307047CBB138B5DD681C4695B11B69E2
:1057080083B1636973B1636863B159B194F801C037
:10571800BCF1010F18BF40F08000A84703460020E5
:10572800237238BD4FF0FF3038BD4FF0FF3070475F
:1057380030B5002383B00C4605468DF807300122AA
:105748000B464B200DF10701FFF7D4FF08B103B05A
:1057580030BD9DF8072023460DF107014B2022F0AC
:1057680001022A438DF807200122FFF7ABFF00282A
:10577800EDD184F82A5003B030BD00BF10B5D8B1C0
:10578800C3680446C3B10369B3B14369A3B14368AD
:1057980093B190F82A3013B10024204610BD014679
:1057A8000120FFF7C5FF0346626940F6B83061681B
:1057B8001C469047204610BD4FF0FF34EDE700BF70
:1057C80000297DD0CB6810B50C4682B0002B5DD087
:1057D8000B69002B5AD04B69002B57D04B68002B14
:1057E80054D04378042B4DD8DFE803F009104C2E31
:1057F8000300002002B0BDE81040FFF799BF08463B
:10580800FFF7BCFF002844D002B010BD0846FFF7E0
:10581800B5FF0028F8D1234601220DF107014C20DD
:10582800FFF768FF0028EFD19DF807002346012203
:105838000DF1070120F006044C2044F002048DF815
:105848000740FFF73FFFDFE70846FFF797FF00280D
:10585800DAD1234601220DF107014C20FFF74AFF58
:105868000028D1D19DF80700234601220DF1070138
:1058780020F006044C2044F006048DF80740FFF79A
:1058880021FFC1E76FF0020002B010BD4FF0FF30FA
:10589800BAE7234601220DF107014C20FFF72AFF42
:1058A8000028B1D19DF80700234601220DF1070118
:1058B80020F006044C208DF80740FFF703FFA3E70C
:1058C8004FF0FF30704700BF30B583B000250B465E
:1058D8000446082269464B20CDE90055FFF70AFF28
:1058E80008B103B030BD9DF807109DF80330217151
:1058F8009DF806109DF80220E1709DF80510D50965
:1059080021749DF80410E572E173C3F3C20121709C
:10591800D909A171C3F38011E171C3F38001217228
:10592800C3F3400103F0010361729DF80110A372F3
:10593800C2F3C203C1F3C2016373A170C2F3801141
:1059480002F007022173A27303B030BDF0B508223C
:1059580085B00E4600240DEB020105463346422071
:1059680002940394FFF7C6FE044650BB9DF90B70E2
:1059780032469DF80A307F019DF80E109DF90D60A2
:1059880047EAD3079DF80F3089089DF80C00F60107
:1059980041EA83119DF9093046EA50069DF808004E
:1059A8005B01019143EAD000FFF7BAFD0199288015
:1059B8003846FFF7FFFD019968803046FFF744FE3F
:1059C800A880204605B0F0BD10B5044682B001227B
:1059D80048200DF107012346FFF78CFE08B102B0FD
:1059E80010BD234601220DF106014A20FFF782FE71
:1059F8000028F4D19DF807209DF8063002F0010236
:105A080043EA0223238502B010BD00BF90F81CC0F2
:105A18004160BCF1020FC26001D18368184704F0ED
:105A280035BE00BFF0B4046840F201251E4625616A
:105A3800A3B121B311F8015B013B6566256FAF0780
:105A480007D41546013E676F1AB105F8017B2A464F
:105A580004686569ED07F1D5002BEAD16EB10368DA
:105A6800196F8907FAD41146013E5B6F002AF5D0F9
:105A780001F8013B0A46002EF1D1F0BC704790F8BE
:105A88003C50D9E7324B334930B5D3E9115420792A
:105A9800C8771A6C95F804C081F81CC0087752B111
:105AA800B2F5004F23D32C4911442A4A1964D07601
:105AB80082F81BC030BD19680F24D86C8C6540F281
:105AC8000134CA610C614FF47C544C6103210468B1
:105AD800246883F83D10214B9C4226D1037F426005
:105AE800022BC26026D18368BDE8304018472D6874
:105AF800E98B090422D492B2EA832168EC8BA4B220
:105B0800EC82CC8B240405D5CC8BC2F3080204F4B8
:105B18007E442243CA83CA8B92B2CA8200210D4AAC
:105B28001964D07682F81BC030BD23461146BDE803
:105B380030401847BDE8304004F0A8BDE98BC2F3F7
:105B4800080E92B201F47E4141EA0E01E983D4E7DE
:105B58001819002000800E400180FFFF7D390000E9
:105B680043682DE9F04FD3E90041814D4FF0B80A61
:105B780022684FF0020822EA01027E492260AA69DF
:105B880011407D4A0A43AA6190F810E07B4A03EB72
:105B98000E0603EB8E0E317C02EB01118968C1F809
:105BA80000A090F811C003EB0C050CF10A0C95F855
:105BB800241002EB01118968C1F800A0817C03EB75
:105BC800010903EB810199F838B002EB0B1BDBF8F4
:105BD80008B0CBF800A0D4F800A05F684AEA070A2A
:105BE800C4F800A0347CDEF814E002EB0414646806
:105BF800C4F800E095F8244053F82CC002EB0414D4
:105C08006468C4F800C0C96B99F8384002EB041204
:105C1800526811609A6C99F8441011601A6A317FC1
:105C28005B6B116095F830201A600F220368C3F887
:105C380010809A65C27C002A31D072B6C37CDC071A
:105C480008D54FF0E0214469D1F8802122408262D2
:105C5800C1F88021990708D54FF0E0218469D1F86F
:105C680084212240C262C1F884215A0708D54FF026
:105C7800E021C469D1F8882122400263C1F8882153
:105C88001F0708D54FF0E021046AD1F88C21224083
:105C98004263C1F88C21DE0655D462B60368384CDD
:105CA8008268A24259D0324A846092693549C2F367
:105CB8000116C2F38262344D51F826100132B1FB4D
:105CC800F2F2AA4231D80022C260002403211C61EA
:105CD8000724596201211A641C661961C37C13B335
:105CE800DD0704D5816A4FF0E022C2F800119C0755
:105CF80004D5C16A4FF0E022C2F80411590704D54F
:105D0800016B4FF0E022C2F808111A0704D5416B65
:105D18004FF0E022C2F80C11DB0604D5826B4FF07D
:105D2800E023C3F81021BDE8F08F1849A1FB025108
:105D3800090DB2FBF1F2A24288BF0131B1F5817FB2
:105D48000DD3134AC0E74FF0E022416AD2F89031F0
:105D58000B408363C2F890319FE7C268B5E7022918
:105D6800B1D902394C08220242EA04420A43ABE79D
:105D780000C00F40CFFFFFE310000008D81200203A
:105D880000093D00940E0020FF083D0083DE1B4300
:105D9800FF7F7F000BB1FFF745BE70474368D3E92B
:105DA80000120968114200D1704710B50268044614
:105DB800002005211061227C1344187C05F060FB4B
:105DC800627C63680521134493F8240005F058FBAE
:105DD8006368A27C05211344BDE8104093F838009D
:105DE80005F04EBB70B500F1240384B08C46044620
:105DF80001AD164693E8070085E807004FEA4C1204
:105E08002946206A01F068FB012806D13246294656
:105E1800206A01F045FB04B070BD002004B070BDDD
:105E280010B5044600F0BAFD002384F8313084F838
:105E3800333010BD38B514460D46002200F1240158
:105E4800006A01F02DFB034620B1428901202A8017
:105E58001B89238038BD00BF38B514460D46002283
:105E680000F12401006A01F01BFB034620B1C2893E
:105E780001202A809B89238038BD00BF38B50D4694
:105E880090F8311009B1002038BD382204460CF0D2
:105E98009FFC012340222562184684F8333084F899
:105EA800312038BDF0B40D460978202903D115F802
:105EB800014F202CFBD0156095602C782F2C11D029
:105EC80084B16E1C3C2C1D4F35462AD8212C12D883
:105ED80004F1FF3CBCF11E0F16D80020F0BC70473F
:105EE80015F8014F202CFBD02F2CF9D01D6011463E
:105EF800F0BC01F0C3B9A4F1220C5FFA8CFC27FABC
:105F08000CFC1CF0010FE8D12E2C01D0202C0DD157
:105F180016F8014B002CE5D02F2CE3D03C2C35464D
:105F2800D4D95C2CD9D003D97C2CD6D09660EFE795
:105F38003E3C012CFAD80020F0BC70470121000536
:105F48002DE9F04F90F8333083B00546DC0774D55F
:105F580058060F46904640F1B080D5E90023D5E9B0
:105F6800041018EB020443F10003A14270EB030391
:105F7800C0F0A980B8F1000F5BD0464605F11809BA
:105F8800D5E90032D5F820A0DAF838441C40C4F32B
:105F9800080B002C70D1134370D195F831305A0694
:105FA8004CBFDAF83424EA69AA619AF84504023A3F
:105FB800DAF82C14630A824001EB54211144BBF136
:105FC800000F45D1B6F5007F42D3DAF81C22914282
:105FD8003ED0B6F5806F58D34FF0010B0BFA00FB9B
:105FE800ABEB030B730A9B4528BF9B4691424FEAD4
:105FF8004B240AD801EB0B039A4206D20AF5047027
:10600800019103F01BFE0199B8B1DAF814025B465E
:106018000268D2F814A03A46D04770B12346274404
:10602800D5E900125B1842F10002361BC5E90032BF
:10603800A8D1404603B0BDE8F08F95F832304FF054
:10604800FF3043F0020385F8323003B0BDE8F08F2B
:10605800CBF5007400220AF50470B44228BF344618
:1060680003F018FE0028E8D000EB0B012246384662
:1060780005F046FA2346D2E7AA6996E795F8333041
:106088005B060ED5AA6901328EE7DAF814023A46A1
:1060980003681B6998470028CFD04FF400731C464B
:1060A800BDE74A465046A96901F058FA0028C4DB02
:1060B8000CD0D5F820A0AA6977E795F831301907F0
:1060C8007FF558AF49E7A1EB020853E795F831305F
:1060D80013F0500FB1D0A8EB06084046AAE700BF5E
:1060E800F0B583B00122044685690DF10701D0E9B6
:1060F8000067FFF725FF0128A5610CBF9DF8070081
:106108004FF0FF30C4E9006703B0F0BD2DE9F04F50
:106118001F4690F8313083B00446D0F81880002B21
:1061280051D01646D0E9001CBC4508BF91425CD04E
:1061380056EA07024DD01D0704D5D0E90402B04243
:10614800BA4140D394F83320751ED4F820A00192A8
:1061580047F1FF309AF845240932D2B2C2F1200E35
:10616800D540A2F1200900FA0EFB20FA09F045EA11
:106178000B0505430198400633D4481E20FA02F265
:106188004CF1FF3051EA0C0C00FA0EFE20FA09F02F
:1061980042EA0E0242EA000201D0954229D25B0689
:1061A8004CBFDAF83434E369A36104F1180906E056
:1061B800A169013D206A01F0D1F9002803DD4A46B2
:1061C800002DF5D107E00020C4F8188003B0BDE821
:1061D800F08F002383610120C4E9006703B0BDE8A4
:1061E800F08FE3692B44A361F5E7012003B0BDE814
:1061F800F08FAD1AD9E700BF2DE9F04F174690F898
:1062080031208FB00546002A40F0D7808B4691F8A0
:10621800311011F0500F00F0D08003F003019A46BE
:10622800032900F0CA80013103F0080041EA0003A5
:106238000293002F00F0CB80396901F10E08B649AE
:10624800A1FB0818DBE900104FEAD808014308F160
:1062580002085FFA88F805D000200021CBF8182042
:10626800CBE900010024029B264643F04003039338
:10627800202206A95846FFF763FE00B3202840F005
:106288009C809DF918209DF81830002AC0F2A28041
:1062980034B9DBF80020A2F12009DBF818200192BC
:1062A800444501D20134E4B2002B00F013812022CE
:1062B80006A958460026FFF743FE0028DED11AF447
:1062C800007F7AD0029B9B0777D5002F75D0444575
:1062D80017D2DDF804A0202206A95846FFF730FEA1
:1062E800631C002861D0202867D12CB9DBF8002076
:1062F800DBF818A0A2F12009DCB2A045EBD8CDF854
:1063080004A03822002128469BF833400CF060FA9C
:10631800DBF82030C4F38014019A2B62082300268E
:1063280085F82C4085F831303B68C5E909297B6040
:10633800BE81B8F1000F33D008F1FF39B346DFF85A
:10634800DCA15FFA89F9012259462846FFF74AFD80
:10635800044690B390F90020002A2EDB2022002169
:106368000CF036FA002E00F0BC80BBF1010F00F0F3
:10637800D780C123A3461E3404F81E3CBB89384687
:106388001BB9D7E901239A4205D003F0C1FC2BF8C9
:10639800020FA345F2D101365FFA86FBD845D2D861
:1063A800284600F0FBFA06460DE05846DBF8186070
:1063B80000F024FB002840F0918000231E4685F859
:1063C800313085F8333030460FB0BDE8F08F4FF0EC
:1063D800030847E756BB444538BF0024852B7FF4A4
:1063E80047AF31463822284601260CF0F1F99DF8CE
:1063F8001C209DF8193085F8303002F03703D2069A
:1064080058BF43F0080385F83130DBF80030DBF87B
:106418002020203B2A62DBF81820C5E909239BF8D5
:106428003330C3F3801385F82C3021E7C02B28D0F4
:10643800C12B7FF43CAF3A4606A9284600F092FEED
:10644800E8B1BB89DBB9D7E901329A4217D11AF40E
:10645800006FB2D11AF4884F70D195F8333098078D
:106468006CD41AF4806FA8D11AF4804FABD02846A8
:10647800D5E90423FFF74AFE0028A4D19DE7064684
:10648800F6E6029B85F833309DF819309B0702D554
:10649800039B85F833300B9BEB61DDE90823C5E9E5
:1064A8000423DDE90C23C5E90223002FCFD04FF0E8
:1064B80000033A69BB813B687B609DF81B309A42B8
:1064C8007FF4F5AEBE8ABDF81C30F61AB6FA86F629
:1064D8007609CDE6002F7FF4F2AE6EE7CBF81860B0
:1064E8000BE78523237085F8309084F80190DAF85B
:1064F8000030002B46D00DF113020DF1160105A84E
:106508009847BDF814306381BDF8163023819DF893
:10651800133023753FE700BF89888888E42E002060
:10652800C02384F801B02370029B63F07F0385F8D1
:1065380033303B69E370BB8AA3802CE795F8313090
:10654800D9063FF53AAF13F001017FF436AF1AF4DC
:10655800806F89D095F8332092077FF52EAF002BF6
:106568003FF42BAFD5E90032134304D000220023B7
:10657800A961C5E90023284600F042FC00283FF441
:106588001CAF20E745F621036381E381638202E7BC
:106598002DE9F043002597B0994690F831300192E3
:1065A8001495ADF81450002B3ED191F831300F46B8
:1065B80013F0500F38D01378044616462F2B37D0D7
:1065C8004FF0000801AB02AA31462046FFF76AFCEB
:1065D80050B3019E3378002B3ED0002302AA3946DF
:1065E8002046FFF709FEF8B1A44608AD04F13007CC
:1065F800DCF800000CF1100C5CF80C1CAE465CF8E2
:10660800082C10355CF8043CBC45AEE80F00EFD10F
:10661800DCF8000008AF2860204600F0BFF984F8D5
:10662800318084F83380CDE7002017B0BDE8F083CF
:1066380016F8011F2F29FBD00196B1B93822204640
:106648003D6A0CF0C5F8012340222562184684F8FB
:10665800333084F83120E8E74B4602AA3946204611
:10666800FFF7CAFD17B0BDE8F0833822002108A85B
:106678003D6A0CF0ADF8012308AF10958DF8533042
:1066880040238DF851309BE719B101F58961FFF777
:106698007FBF0846704700BF90F8313063B991F862
:1066A800313013F0500F07D00B6813F01F0C03D1D3
:1066B80013466246FFF7A0BD002070478169F8B510
:1066C8000446006A01B10131012200F00DFE0128E3
:1066D800054632D901230146206A1A4600F064FEB5
:1066E800064650B3A3695BB394F83320510612D51C
:1066F800591CA94218D022F04002E16984F83320DD
:1067080005E0206A00F04CFF3946B0B1A3694F1C80
:1067180099423A46F5D34FF0FF322946206A00F0F5
:106728003FFF50B1A16911B93046A561F8BD2A46AD
:10673800206A00F035FF0028F6D100263046F8BD63
:1067480094F8333043F0400384F83330ECE700BF6B
:1067580090F833309A0736D5C16970B50546A1B9A6
:106768000024214607E0037803F07F03037095F8BF
:1067780030308B4229D3013401222846FFF732FBFF
:10678800E1B20028EFD1002070BD5B06006A34D565
:1067980090F84534D5E902240933013ADBB244F1D3
:1067A800FF34C3F1200CDA40203B04FA0CFC24FA35
:1067B80003F342EA0C021A430023013200F0F4FD0D
:1067C8000028CDD1DFE70020704700232C6A85F828
:1067D8003130204685F8333003F030FA0028D2D023
:1067E80004F5047003F02AFA0028CCD0D4F8400449
:1067F8000368BDE870401B6A184700F0F1FE0028E6
:10680800AED1C0E790F83130DB0601D400207047E4
:1068180010B5002288B000230446FFF777FC08E093
:1068280020281BD19DF900309DF80020002B15DB96
:1068380032B1202269462046FFF782FB0028EFD1BB
:1068480094F833300822204643F0020384F83120BC
:1068580084F83330FFF77CFF08B010BD002008B083
:1068680010BD00BF2DE9F0414FF0000882B04A4F3B
:1068780006464446414600223046FFF7B3FA05462D
:1068880030B10178C02969D0C1292BD0852909D018
:1068980096F83230002043F0010386F8323002B017
:1068A800BDE8F08196F8313003F0370383803B6808
:1068B80083B10DF103020DF1060101A89847BDF857
:1068C8000630AB812B82BDF80430EB816B829DF8DA
:1068D80003306B75326A92F8103243F0010382F884
:1068E80010322978A1F185000022B0FA80F0400921
:1068F80001E00422A95CE303012A02F1010243EA50
:10690800540311FA83F39CB201D10028F1D11F2A54
:10691800F0D908F1010896F830305FFA88F18B4217
:10692800A9D2012206F12401306A00F0B9FD00283D
:10693800AED0356A4480284603F080F90028A7D0F5
:1069480005F5047003F07AF90028A1D0D5F84004C1
:1069580003681B6A98470028A1D199E796F8333055
:1069680013F0400F437814BF43F0020303F0FD0314
:106978004370D6E90401D6E90732C5E90201D6E930
:1069880002016B61C5E9060192F8103243F0010378
:1069980082F810322978A5E7E42E002038B590F85F
:1069A800313043B390F93320044690F83330002A4D
:1069B8000CDB056A284603F041F978B994F83230BF
:1069C800002043F0010384F8323038BD03F07F0320
:1069D80080F83330BDE83840FFF744BF05F5047050
:1069E80003F02CF90028E9D0D5F8400403681B6AA5
:1069F80098470028E2D0012038BD00BF70B590F854
:106A0800313005465A064CD480682B6AD3F83C349A
:106A18001844B0F1806F01D3002070BD2846FFF7FD
:106A28004DFE0028F8D0286A0024AE6990F8453455
:106A3800023E9E40D0F82C341E443119052200F540
:106A48000470013403F026F94FF400720021002885
:106A5800E2D00BF0BDFE286A012390F8452493404C
:106A68009C42EAD395F831305B0615D495F833206B
:106A780062F07F02D5E9023185F83320D0F83C2452
:106A88009B1841F10000AB60D5E90431E8609B1820
:106A980041F10001C5E904312846BDE87040FFF71F
:106AA8007DBF006A00F0A2FEAFE700BF70B50446E4
:106AB80090F831009CB0002310F0180F0C931A9333
:106AC80003D0206A0B6A984202D000201CB070BD27
:106AD80040F601236846FFF75BFD0028F5D0A44681
:106AE80004F130060EADDCF800000CF1100C5CF877
:106AF8000C1CAE465CF8082C10355CF8043CB44518
:106B0800AEE80F00EFD1DCF8000009AA04F1240375
:106B180028609DF8305007CA83E8070094F833309E
:106B2800204684F8305063F07F0384F83330FFF751
:106B380035FF0028C9D00021022208230EA815918C
:106B48008DF86B208DF86930FFF702FEBEE700BFB5
:106B580038B591F8313013F0500F02D1002528468E
:106B680038BD40F602230446FFF746FB0028F5D05F
:106B78001023204684F83130FFF740FF05460028EF
:106B8800ECD0A169002200232046E161FFF7BEFA9C
:106B9800C12294F8313084F83320002BDFD0412310
:106BA800204684F83330BDE83840FFF75BBE00BFAD
:106BB800F0B5002597B01F4690F831300192ADF836
:106BC80014501495002B46D191F831300E4613F02D
:106BD800500F40D01378044611462F2B3ED001ABFE
:106BE80002AA2046FFF75EF9002834D0019B1B78E3
:106BF800002B41D0002302AA31462046FFF7FCFAB9
:106C080030B947B302AA31462046FFF7A1FF10B3B7
:106C1800A44608AD04F13006DCF800000CF1100CB5
:106C28005CF80C1CAE465CF8082C10355CF8043C8B
:106C3800B445AEE80F00EFD1DCF8000008AE2860DC
